:100000000C946D010C9495010C9495010C94950140
:100010000C9495010C9495010C9495010C94950108
:100020000C9495010C9495010C9495010C94AF0AD5
:100030000C9495010C9495010C9495010C949501E8
:100040000C94650A0C9495010C9495010C949501FF
:100050000C9495010C9495010C9495010C949501C8
:100060000C946B0B0C949501AED580A83FD3004047
:100070008D142002A1C8DA12817FD9F1DB40A4A639
:10008000AF00030C0F30333C3FC0C3CCCFF0F3FCC8
:10009000FF000005072060000000000000005F0076
:1000A000000007000700147F147F14242A7F2A12FF
:1000B00023130864623649562050000807030000E5
:1000C0001C2241000041221C002A1C7F1C2A080817
:1000D0003E0808008070300008080808080000602A
:1000E000600020100804023E5149453E00427F4016
:1000F0000072494949462141494D331814127F1075
:1001000027454545393C4A494931412111090736BE
:1001100049494936464949291E000014000000405B
:100120003400000008142241141414141400412255
:10013000140802015909063E415D594E7C12111204
:100140007C7F494949363E414141227F4141413E00
:100150007F494949417F090909013E414151737F66
:100160000808087F00417F41002040413F017F088F
:100170001422417F404040407F021C027F7F0408E0
:10018000107F3E4141413E7F090909063E41512110
:100190005E7F09192946264949493203017F010337
:1001A0003F4040403F1F2040201F3F4038403F63BA
:1001B0001408146303047804036159494D43007F14
:1001C0004141410204081020004141417F040201E5
:1001D0000204404040404000030708002054547887
:1001E000407F284444383844444428384444287FD5
:1001F000385454541800087E090218A4A49C787F2F
:100200000804047800447D40002040403D007F10F9
:1002100028440000417F40007C047804787C080476
:1002200004783844444438FC18242418182424182A
:10023000FC7C08040408485454542404043F442417
:100240003C4040207C1C2040201C3C4030403C4432
:10025000281028444C9090907C4464544C440008EE
:10026000364100000077000000413608000201021C
:1002700004023C2623263C68001980400000000050
:1002800000240027002A0000000000250028002B81
:1002900000000000002300260029000404040404D8
:1002A0000404040202020202020303030303030123
:1002B00002040810204080010204081020010204FA
:1002C00008102000000008000201000003040700DD
:1002D00000000000000000008A0C11241FBECFEFB8
:1002E000D8E0DEBFCDBF13E0A0E0B1E0E0EBF7E285
:1002F00002C005900D92AE39B107D9F724E0AEE9FE
:10030000B3E001C01D92AE3BB207E1F711E0CDE6CC
:10031000D1E004C02197FE010E94D911CC36D1074B
:10032000C9F70E94F60C0C94D6130C9400008F921F
:100330009F92AF92BF92FF920F931F93CF93DF9341
:10034000853B910511F484EB90E0F090A3042BE041
:100350002F1508F44CC02091A50408E512E0021BFB
:10036000110927FD1395000F111F000F111F209178
:10037000A404C8E8D0E0C21BD10927FDD395CC0F57
:10038000DD1FCC0FDD1F4E010D2E000CAA08BB088F
:100390009801012E000C440B550B281939094A0904
:1003A0005B09DC010E945D1124EB30E040E050E08D
:1003B0000E943311820E931EA41EB51E8C169D063C
:1003C0002CF0E801801691060CF4E4012297CC0F82
:1003D000DD1F2FB7F8948F2D90E0FC01EE0FFF1F6B
:1003E000E80FF91FEE58FB4FD283C1832FBFDF9177
:1003F000CF911F910F91FF90BF90AF909F908F90E2
:100400000895833081F028F4813099F08230A9F08A
:1004100008958730A9F08830C9F08430B1F4809114
:1004200080008F7D03C0809180008F778093800053
:10043000089584B58F7784BD089584B58F7DFBCFF3
:100440008091B0008F778093B00008958091B000C4
:100450008F7DF9CFCF93DF93E4EDF2E08491E0EC70
:10046000F2E0D491ECEAF2E0C491CC23A1F0811146
:100470000E940102EC2FF0E0EE0FFF1FEF56FD4F40
:10048000A591B491EC91ED2381E090E009F480E036
:10049000DF91CF91089580E090E0FACF1F93CF9342
:1004A000DF93282F30E0F901ED53FD4F8491F901DE
:1004B000E155FD4FD491F901E556FD4FC491CC2390
:1004C000A9F0162F81110E940102EC2FF0E0EE0F2F
:1004D000FF1FE957FD4FA591B4918FB7F894EC91A8
:1004E000111108C0D095DE23DC938FBFDF91CF912F
:1004F0001F910895DE2BF8CFCF93DF9390E0FC019E
:10050000E155FD4F249185569D4FFC018491882330
:10051000D1F090E0880F991FFC01E358FD4FA591A1
:10052000B491FC01E957FD4FC591D491623071F44B
:100530009FB7F8943C91822F809583238C93E88118
:100540002E2B28839FBFDF91CF9108958FB7F8940A
:10055000EC912E2B2C938FBFF6CF3FB7F894809160
:10056000120490911304A0911404B091150426B5BF
:10057000A89B05C02F3F19F00196A11DB11D3FBFDB
:10058000BA2FA92F982F8827BC01CD01620F711DAA
:10059000811D911D42E0660F771F881F991F4A95A4
:1005A000D1F708958F929F92AF92BF92CF92DF9230
:1005B000EF92FF924B015C010E94AD026B017C0146
:1005C0000E94AD026C197D098E099F09683E734037
:1005D00081059105A8F321E0821A9108A108B108CC
:1005E00088EEC80E83E0D81EE11CF11C8114910432
:1005F000A104B10429F7FF90EF90DF90CF90BF9056
:10060000AF909F908F90089508950895AF92BF92F4
:10061000CF92DF92EF92FF920F931F93CF93DF93CE
:100620006C017B018B01040F151FEB015E01AE18FD
:10063000BF08C017D10759F06991D601ED91FC911F
:100640000190F081E02DC6010995892B79F7C5014C
:10065000DF91CF911F910F91FF90EF90DF90CF909E
:10066000BF90AF9008952091DF03260F3327331FEB
:1006700021323105ECF420913C04FC0190E080E053
:10068000243069F082E00895A091DF032191AC014C
:1006900041545C4FA40FB52FB11D2C9301968617C2
:1006A00098F38091DF03680F6093DF0380E0089583
:1006B00081E0089510923C0481E080933B04109205
:1006C000160461E082E10E944E0261E083E10E9433
:1006D0004E02E9EBF0E080818E7F808380818D7F08
:1006E000808388E48093B80085E48093BC000895FB
:1006F000CF93DF9391E09093BE038823B9F0C0912C
:10070000B800D091BA008091BC008A7B8093BC0075
:1007100060E082E10E944E0260E083E10E944E02AE
:100720000E945A03D093BA00C093B800DF91CF91D2
:100730000895CF92DF92EF92FF920F931F93CF9382
:10074000DF93D091650481E0D13208F09CC0C09164
:1007500064040E94AD026B017C0180913C04811114
:100760006CC082E080933C0481E080933B048FEF77
:1007700080933A0410923904D0933804A4E4B4E08E
:10078000E8E1F4E080E0D8138DC010921704809166
:100790001704CC0FC82BC093170480911604813026
:1007A00009F084C0109216040E94AD026B017C0116
:1007B000809117048093BB0080913E0490913F0488
:1007C000A0914004B0914104892B8A2B8B2BA1F07E
:1007D0000E94AD0200913E0410913F04209140041C
:1007E000309141046C197D098E099F09061717077E
:1007F0002807390708F442C08091BC0083FDD8CF98
:1008000085EC8093BC000E94AD026B017C0180915D
:100810003C04823009F44CC080913A048F3F09F4C3
:1008200069C080913A04803209F466C080913A042C
:10083000803309F463C084E026C080913E04909127
:100840003F04A0914004B0914104892B8A2B8B2B4B
:1008500009F483CF0E94AD0200913E0410913F0441
:1008600020914004309141046C197D098E099F0943
:10087000061717072807390708F06FCF80913D0446
:100880000E94780385E01092430410926504109250
:100890004204DF91CF911F910F91FF90EF90DF9075
:1008A000CF9008959D9191938F5F6DCF85EEA9CFE5
:1008B00080913E0490913F04A0914004B091410486
:1008C000892B8A2B8B2B09F4A2CF0E94AD020091B9
:1008D0003E0410913F0420914004309141046C1972
:1008E0007D098E099F09061717072807390708F0A1
:1008F0008ECFC4CF80E0C7CF82E0C5CF83E0C3CF27
:100900000895E091080480910704E81730F4F0E0BE
:10091000E256FC4F808190E008958FEF9FEF08959D
:1009200090910804809107042FEF3FEF981748F447
:10093000E92FF0E0E256FC4F208130E09F5F90937A
:100940000804C90108958091070490910804891B47
:10095000990B0895CF92DF92EF92FF920F931F931E
:10096000CF93DF937C01CB018A01209142042223A3
:1009700089F0EB016B01C40ED51ECC15DD0569F0C5
:100980006991D701ED91FC910190F081E02DC701B3
:100990000995F3CF642F0E943303C801DF91CF91F3
:1009A0001F910F91FF90EF90DF90CF900895CF931C
:1009B000DF931F92CDB7DEB76983209142042223D3
:1009C000F9F020916504203258F021E030E0FC017C
:1009D0003383228390E080E00F90DF91CF910895E0
:1009E00080914304E82FF0E0EC5BFB4F998190830A
:1009F0008F5F809343048093650481E090E0ECCFA7
:100A000061E0CE0101960E943303F7CFCF93DF93CD
:100A1000EC018D85882329F081508D87DF91CF915E
:100A200008959C818E819817C8F788896827E88186
:100A3000F9810084F185E02D42E0CE0109958C8199
:100A40008F5F8C83EBCFDC01ED91FC910084F1850D
:100A5000E02D40E00994FC012781269526952695F6
:100A6000621738F465832385620F6770606B0C949E
:100A7000230508950F931F93CF93FC0126816217DE
:100A800098F4C62F8C0164836085C60F6C2F6F703D
:100A90000E9423056C2F62956F706061C801CF9131
:100AA0001F910F910C942305CF911F910F910895E1
:100AB000CF92DF92EF92FF920F931F93CF93DF932A
:100AC000EC01F62EC42ED22E1D868F81869586953A
:100AD0008695081710F00FEF080F1D2D6F2DCE0112
:100AE000011788F00E943A05612FCE010E942B0564
:100AF000EF2CCE1430F06889CE010E940605E394F5
:100B0000F8CF1F5FEBCF0E943A056D2DCE01DF912C
:100B1000CF911F910F91FF90EF90DF90CF900C94A9
:100B20002B050F93CF93DF93C6EAD4E01B861A867A
:100B300060E4CE010E9423050F8106950695069577
:100B400001504E81415020E060E0CE010E945805E6
:100B5000DF91CF910F9108952F923F924F925F9224
:100B60006F927F928F929F92AF92BF92CF92DF92BD
:100B7000EF92FF920F931F93CF93DF9300D000D09B
:100B800000D01F92CDB7DEB79F838E83DC011E9607
:100B90008D919C91009709F477C1FC013296549095
:100BA00031962491E22EF12CB7E0EB0EF11C43E0DC
:100BB000F594E7944A95E1F7E982319634913196BC
:100BC00044916D3001F560E08E819F810E943A056D
:100BD00081E090E027960FB6F894DEBF0FBECDBF40
:100BE000DF91CF911F910F91FF90EF90DF90CF9009
:100BF000BF90AF909F908F907F906F905F904F903D
:100C00003F902F9008956A3009F061C060E08E81B6
:100C10009F810E943A05EE81FF8101890E9DE02CA3
:100C2000112465816E0D8485882349F027812695DE
:100C3000269526958E2D821B860F18162CF08E81F8
:100C40009F810E942B05C4CFAE81BF811B969C91D2
:100C50001B97890F87701B968C931B972E191596DF
:100C60002C9315971E96ED91FC91309771F1339668
:100C7000E491F0E0379633E0F595E7953A95E1F7A2
:100C80000E9F002D1124EFEFE20F0E0FEE81FF817A
:100C9000468141506481CF010E945805AE81BF81D9
:100CA0001C968C911C97813009F092CF1B966C9109
:100CB0001B97660F660F660F6F731A966C931A97E1
:100CC0006064CD010E94230583CF00E0DCCF631771
:100CD00060F1A32FA40FBB27BB1F6A171B062CF5BF
:100CE000631B212C8C010A5F1F4FEE81FF81518510
:100CF0003189539F302D11243D83211014C0FC01F4
:100D000034910196FC018491932F0297A0F45E9C8C
:100D100090015F9C300D1124629FC001639F900D74
:100D20001124080F191F612C28C0603209F0ACC0D3
:100D300022242394D7CF277088E0682E621A2111CD
:100D400001C0612CF80120E090E080E0621731F0F2
:100D50003491830F911D2F5F3196F8CFF801E60F84
:100D6000F11D5490E89EF001E99EF00DF89EF00D03
:100D70001124E40FF11D0E0F1F1FAE81BF811496C9
:100D8000BC91BA83EE81FF81F581FB83AE81BF8187
:100D90001D96BC91BC83852C912CAA24A394B12CC4
:100DA000312CE9813E1608F06DC0412CAE81BF8127
:100DB00051968C915197481608F05DC0EC811D96B4
:100DC000EC93311002C0442079F0AE81BF811596BA
:100DD000DC901597D3946A81CD010E943A056D2D60
:100DE0008E819F810E942B05D12CC12CC514B0F59A
:100DF000712C211004C0F601E00FF11F74906620E1
:100E000061F0EA14FB0449F4E72DF0E0062C02C07F
:100E1000F595E7950A94E2F77E2EEE81FF818189B0
:100E2000823079F44420B1F072948FE07822E72D7B
:100E3000F0E0EF57FF4F7490672D8E819F810E94E5
:100E40000605672D8E819F810E9406053FEFC31A1C
:100E5000D30ACCCFF72DFF707F2EE9CFD12C8D8117
:100E6000D81639F060E08E819F810E940605D394E8
:100E7000F6CF43949BCF3394AFEFAA1ABA0A080D6A
:100E8000191D8FCF6B81DBCE90E080E0A3CE8091E7
:100E9000A3048C3008F052C061E08BE00E947C0219
:100EA0008091A304282F30E0F901EE0FFF1FE20F1D
:100EB000F31FEE58FB4F9081907C9B6090831092C3
:100EC000A4041092A5042CE0622F0E94CD11829FF1
:100ED000B001112430E020E0AB01420F531FFA01B2
:100EE000EE0FFF1FE40FF51FEE58FB4F908196FDAC
:100EF00016C02F5F3F4F2C30310571F781110FC0A5
:100F00001092800082E08093810010928500109200
:100F10008400B19A80916F00826080936F00E091AD
:100F2000A3048E2F90E0FC01EE0FFF1FE80FF91FC6
:100F3000EE58FB4F808180648083089508950F935D
:100F40001F93CF93DF9360E08EE00E944E02C4EBCC
:100F5000D0E00BE916E8CE010E949701C801019785
:100F6000F1F72197C638D105B1F762E370E080E070
:100F700090E00E94D202C7E8D0E00BE916E8CE016B
:100F80000E949701C8010197F1F72196C53BD10551
:100F9000B1F762E370E080E090E00E94D20261E08D
:100FA0008EE0DF91CF911F910F910C944E02EF9242
:100FB000FF920F931F93CF93DF93C82F8B0160E0B5
:100FC0008EE00E944E026C2F80E10E944E02D0E023
:100FD000C0E00150110983EAE82E82E0F82EC01724
:100FE000D10784F461E08FE00E944E02C7010197AF
:100FF000F1F760E08FE00E944E02C7010197F1F720
:101000002196EDCFDF91CF911F910F91FF90EF903F
:10101000089560E87CE080E00E94D70760EA70E015
:1010200081E00E94D70710920301109202018EEF17
:101030009FEF90930101809300010895CF93DF9378
:10104000C82F60E080E00E944E026C2F82E00E9478
:101050004E020E942A02892BA9F4CFE4D1E00E941B
:101060002A0261E0892BA9F481E00E944E02CE01A0
:101070000197F1F760E081E00E944E02CE010197F6
:10108000F1F7EDCF62E370E080E090E00E94D202E1
:10109000E0CF80E0DF91CF910C944E02EF92FF926F
:1010A0001F93CF93DF93EB01C81BD90B11E0D7FF40
:1010B00004C0EC01C61BD70B10E01C161D0674F40F
:1010C000F12CE12C117060E273E0812F0E94D707B0
:1010D0008FEFE81AF80ACE15DF05A9F7DF91CF9157
:1010E0001F91FF90EF9008950F931F93CF93DF937D
:1010F000EC01062F142F8B89813120F4882329F0ED
:10110000411103C00E9499031B8A8B89811112C06F
:101110008A8991E09093420480936404109243047E
:101120001092650460E4111101C060E086E694E06D
:101130000E94D704602F86E694E00E94D704123004
:1011400041F48B898F5F8B8BDF91CF911F910F9132
:1011500008950E9499031B8AF7CF089590E080E0DC
:10116000089542E050E06EE271E086EA94E00C946B
:101170000603CF93DF93FC0101900020E9F731973C
:10118000AF01481B590BBC0186EA94E00E9406039C
:10119000EC010E94B1088C0F9D1FDF91CF91089543
:1011A000CF93DF93EC010E94910580E391E00E94D0
:1011B000B90886E092E00E94B90880E391E00E94BD
:1011C000B90880E391E00E94B9084C815D81688193
:1011D000798186EA94E00E9406030E94B10880E3C8
:1011E00091E00E94B90880E391E00E94B90881E390
:1011F00091E0DF91CF910C94B9080E94C113FC01DA
:1012000080819181009711F00C947B120895EF92E8
:10121000FF920F931F93CF93DF93EC017B01198211
:1012200018821B821A821D821C82FB010190002001
:10123000E9F731978F01061B170BB8016F5F7F4FDE
:1012400090E080E00E9404130097B9F099838883AE
:101250001B830A832C813D81232B11F4FC01108216
:101260001D830C83B70188819981DF91CF911F91F4
:101270000F91FF90EF900C94CF1388819981009784
:1012800011F00E947B12198218821D821C821B821F
:101290001A82DF91CF911F910F91FF90EF900895E7
:1012A0000F931F93CF93DF9300D000D000D0CDB722
:1012B000DEB7809100019091010197FD93C061E438
:1012C00071E0CE0101960E940709CE0101960E94AD
:1012D000D008CE0101960E94FF080E9447070E9495
:1012E0009F0780910001909101018130910509F4DF
:1012F00073C00CF05CC061E571E0892B09F45FC03C
:101300000091000110910101C801019603301105FF
:1013100011F482E090E0B8010E944E0840919B04D5
:1013200050919C0460919D0470919E0481E0023074
:1013300011050CF080E00E941E08E091A3048E2F9E
:1013400090E0FC01EE0FFF1FE80FF91FEE58FB4F76
:1013500080818F7B80830091020110910301B8018D
:1013600080910001909101010E944E080130110509
:1013700009F452C0E4F565EA71E0012B09F43FC0BD
:10138000009102011091030140919704509198043B
:101390006091990470919A04023011050CF042C0DA
:1013A00080E00E941E08B8016F5F7F4F44C082300A
:1013B0009105A9F060E971E0039709F0A1CFCE0192
:1013C00001960E940709CE0101960E94D008CE0125
:1013D00001960E94FF0894CF66E671E0F0CF6BE7BC
:1013E00071E0EDCF1092010110920001A6CF023002
:1013F0001105A9F061EE71E00330110509F6CE0187
:1014000001960E940709CE0101960E94D008CE01E4
:1014100001960E94FF08B4CF69EB71E0F0CF6DEC4C
:1014200071E0EDCF81E00E941E0862E070E00330C1
:10143000110509F0B8CFC8010E944E0810930101B0
:101440000093000126960FB6F894DEBF0FBECDBF05
:10145000DF91CF911F910F91089585ED8093BC008E
:1014600080913E0490913F04A0914004B0914104CA
:101470000796A11DB11D23E0B695A7959795879571
:101480002A95D1F72091BC0024FD03C010923C04A2
:10149000089540913E0450913F0460914004709142
:1014A0004104452B462B472B69F30097A105B10555
:1014B00041F02AE22A95F1F700C00197A109B1098C
:1014C000E1CF80913D040C9478031F920F920FB6E8
:1014D0000F9211242F933F938F939F93AF93BF93BA
:1014E00080910E0490910F04A0911004B09111040A
:1014F00030910D0423E0230F2D3758F50196A11DDF
:10150000B11D20930D0480930E0490930F04A093BB
:101510001004B09311048091120490911304A091CF
:101520001404B09115040196A11DB11D80931204FD
:1015300090931304A0931404B0931504BF91AF913A
:101540009F918F913F912F910F900FBE0F901F9001
:10155000189526E8230F0296A11DB11DD2CF1F9228
:101560000F920FB60F9211242F933F934F935F93D7
:101570006F937F938F939F93AF93BF93CF93DF939B
:10158000EF93FF9380910204C0919604D0E087FF0F
:1015900024C01092850010928400809102048F5F15
:1015A0008093020480910204082E000C990B8C1782
:1015B0009D0724F4809102048C30C4F18091840052
:1015C00090918500049680349C4908F47AC08091FB
:1015D000840090918500049676C080910204082EC4
:1015E000000C990B8C179D07C4F6E09102048E2F16
:1015F000EE0F990BFC01EE0FFF1FE80FF91FEE58DD
:10160000FB4F808186FFC9CFE09102048E2FEE0F41
:10161000990BFC01EE0FFF1FE80FF91FEE58FB4F6F
:10162000808160E08F730E944E02B7CF20918400CA
:1016300030918500E09102048E2FEE0F990BFC0192
:10164000EE0FFF1FE80FF91FEE58FB4F81819281CB
:10165000820F931F9093890080938800E091020489
:101660008E2FEE0F990BFC01EE0FFF1FE80FF91FF5
:10167000EE58FB4F808186FF11C0E09102048E2F4F
:10168000EE0F990BFC01EE0FFF1FE80FF91FEE584C
:10169000FB4F808161E08F730E944E02FF91EF91BA
:1016A000DF91CF91BF91AF919F918F917F916F917A
:1016B0005F914F913F912F910F900FBE0F901F9010
:1016C000189580E49CE990938900809388008FEFBF
:1016D00080930204E3CF1F920F920FB60F92112452
:1016E0002F933F934F935F936F937F938F939F932A
:1016F000AF93BF93EF93FF938091B900887F8036BB
:1017000009F44AC0F0F5883209F4A7C018F5803111
:1017100009F49BC0B8F4882309F4F9C0883009F4AF
:1017200094C0FF91EF91BF91AF919F918F917F9165
:101730006F915F914F913F912F910F900FBE0F903E
:101740001F901895883109F488C0803251F7809332
:101750003A0414C0803409F49DC040F48033B9F3D6
:101760008833F9F680933A0485ECB0C0803509F4EB
:1017700085C0883509F496C0883499F60E942D0AF0
:10178000D0CF883909F48CC038F5883729F050F467
:10179000883611F0803729F683E080933C0410925C
:1017A000010457C0883809F47BC0803919F08038AB
:1017B00009F0B7CF80910104803208F071C0E09148
:1017C000010481E08E0F809301048091BB00F0E062
:1017D000EF51FC4F80833DC0803B39F0E0F4803A0C
:1017E00009F479C0883A09F09CCF84E080933C04E6
:1017F0001092E0031092DF03E0910504F0910604DB
:1018000009958091DF0381110FC081E08093DF0390
:101810001092BF0309C0803C09F4A6CF883C09F4AC
:10182000A3CF883B09F07DCFE091E00381E08E0FEC
:101830008093E003F0E0E154FC4F80818093BB0093
:101840009091E0038091DF0329C080911704809379
:10185000BB0085EC8093BC0064CF909139048091EB
:101860003804981758F5E091390481E08E0F809381
:101870003904F0E0E85EFB4F8081E9CFE091390464
:1018800081E08E0F809339048091BB00F0E0E85E28
:10189000FB4F808390913904809138049817C8F2E7
:1018A00085E8D8CFE091390481E08E0F8093390428
:1018B0008091BB00F0E0E85EFB4F808380913B04A9
:1018C00081115CCF81E08093160484EA8093BC0090
:1018D00010923C0426CF85EC8093BC0010923C040F
:1018E00080910104803230F4E0910104F0E0EF5186
:1018F000FC4F10826091010470E0E0910304F091CC
:10190000040481EE93E00995109201040ACF10922D
:101910003A0434CF109269041092680488EE93E080
:10192000A0E0B0E080936A0490936B04A0936C04F1
:10193000B0936D0482E191E0909367048093660414
:101940001092A9041092A8041092B2041092B30449
:101950001092B5041092B4041092B60481E0809302
:10196000B70484E291E09093A7048093A604809149
:1019700096048C30B8F591E0980F9093960480937C
:10198000A30490E0FC01EE0FFF1FE80FF91FEE58D3
:10199000FB4F88EB9BE09283818386E990E0A0E097
:1019A000B0E080939F049093A004A093A104B0930F
:1019B000A20480E09DE7A0E0B0E080939B049093B8
:1019C0009C04A0939D04B0939E0480E899E8A0E055
:1019D000B0E08093970490939804A0939904B093F7
:1019E0009A0408958FEF8093A304D7CFCF93DF930A
:1019F00000D000D000D0CDB7DEB7789484B5826037
:101A000084BD84B5816084BD85B5826085BD85B5A2
:101A1000816085BD80916E00816080936E00109220
:101A2000810080918100826080938100809181009B
:101A3000816080938100809180008160809380002C
:101A40008091B10084608093B1008091B00081608A
:101A50008093B00080917A00846080937A008091B6
:101A60007A00826080937A0080917A00816080930E
:101A70007A0080917A00806880937A001092C10089
:101A80001092080410920704109243041092650407
:101A90000E945A0384E093E0909306048093050427
:101AA00085E093E090930404809303048CE080939A
:101AB000B8001092B9048CE38093B8041092AA0481
:101AC0001092AB04E7E7F2E085919491E82EE9E704
:101AD000F2E0F490EAE7F2E0E491E093AC04EBE7A3
:101AE000F2E0E491E093AD04ECE7F2E0E491E093FE
:101AF000AE048C01802F8E198F1548F4F801649183
:101B000086EA94E00E9423050F5F1F4FF3CF0E94E7
:101B1000910562E370E080E090E00E94D202E1E98A
:101B2000F0E0F093B504E093B4048491E2E9F0E0CE
:101B3000E491F82F319709F0CCC01092AF040E94C5
:101B4000910580E391E00E94B90885EF91E00E9441
:101B5000B90880E391E00E94B90885E092E00E9414
:101B6000B90880E391E00E94B90889E192E00E94FF
:101B7000B90868EB7BE080E090E00E94D20266E268
:101B800072E0CE0101960E940709CE0101960E94E3
:101B9000D008CE0101960E94FF0861E080E00E941B
:101BA0007C0261E081E00E947C0261E082E00E94B0
:101BB0007C0261E08EE00E947C0261E08FE00E9486
:101BC0007C0261E080E10E947C0262E081E10E948F
:101BD0007C0261E082E10E947C0261E083E10E947C
:101BE0007C0261E08EE00E944E020E9447070E9444
:101BF0009F07E091A3048E2F90E0FC01EE0FFF1FE2
:101C0000E80FF91FEE58FB4F80818F7B808342E005
:101C1000442E512C612C712C50E0852E50E0952ED5
:101C200002E010E063E0A62EB12C809109049091AF
:101C30000A04A0910B04B0910C040196A11DB11DE2
:101C40008093090490930A04A0930B04B0930C04AE
:101C50000E942A02892B09F0E1C010920904109217
:101C60000A0410920B0410920C04C12CD12C7601A2
:101C70000E942A02892B09F07CC080919F049091D8
:101C8000A004A091A104B091A204C816D906EA0646
:101C9000FB0608F067C0FFEFCF1ADF0AEF0AFF0A62
:101CA000D701C6010297A109B10989309105A105A3
:101CB000B10508F043C0FC01E05AF14F0C94D91172
:101CC0006D0E860E890E8C0E8F0E920E950E980E4E
:101CD0009B0E81E08093AF0432CF64E372E0CE01CB
:101CE00001960E940709CE0101960E94D008CE01FC
:101CF00001960E94FF0860E270E080E00E94D70732
:101D000060E270E081E00E94D7072CC065E472E0D9
:101D1000E6CF66E572E0E3CF67E672E0E0CF68E722
:101D200072E0DDCF69E872E0DACF69E972E0D7CF1F
:101D300066EA72E0D4CF63EB72E0D1CF61EC72E07F
:101D4000CE0101960E940709CE0101960E94D0089B
:101D5000CE0101960E94FF0841E0C416D104E104BF
:101D6000F10449F660E971E080E090E00E94D2025F
:101D70007FCF82E0C81AD108E108F108E9E0CE1669
:101D8000D104E104F10408F0B5C1F601E653F14FC6
:101D90000C94D911D30EEA0E1B0F320F490F870F87
:101DA000F10F0210361061ED72E0CE0101960E9433
:101DB0000709CE0101960E94D008CE0101960E942B
:101DC000FF0810920301109202010E94500962EE76
:101DD00072E018C062EF72E0CE0101960E9407091E
:101DE000CE0101960E94D008CE0101960E94FF0804
:101DF00081E090E090930301809302010E945009DA
:101E000063E073E0CE0101960E940709CE010196BE
:101E10000E94D008CE0101960E94FF0862E370E0A4
:101E200080E090E00E94D2028114910409F4FDCE7A
:101E30000E940000FACE63E173E0CE0101960E9499
:101E40000709CE0101960E94D008CE0101960E949A
:101E5000FF0810930301009302010E94500964E2FD
:101E600073E0D0CF64E373E0CE0101960E940709CE
:101E7000CE0101960E94D008CE0101960E94FF0873
:101E8000B0920301A09202010E94500965E473E040
:101E9000B9CF65E573E0CE0101960E940709CE0136
:101EA00001960E94D008CE0101960E94FF080E9470
:101EB000090865EA71E0CE0101960E940709CE018A
:101EC00001960E94D008CE0101960E94FF0870E0A2
:101ED00060E090E080E00E944E08409197045091AD
:101EE00098046091990470919A0480E00E941E0801
:101EF00061E070E090E080E00E944E0810920301E3
:101F000010920201109201011092000160CF61E471
:101F100071E0CE0101960E940709CE0101960E9450
:101F2000D008CE0101960E94FF080E9447070E9438
:101F30009F0780910001909101018130910509F482
:101F400048C09CF561E571E0892BB1F1E09000019A
:101F5000F0900101C7010196F3E0EF16F10411F4CE
:101F600082E090E0B7010E944E0840919B0450919E
:101F70009C0460919D0470919E0482E0E816F10437
:101F800074F581E00E941E08E091A3048E2F90E07A
:101F9000FC01EE0FFF1FE80FF91FEE58FB4F808189
:101FA0008F7B808365E673E02DCF82309105A1F0B1
:101FB00060E971E0039751F6CE0101960E9407098E
:101FC000CE0101960E94D008CE0101960E94FF0822
:101FD000BDCF66E671E0F0CF6BE771E0EDCF80E05A
:101FE000D1CF66E573E0CE0101960E940709CE01CC
:101FF00001960E94D008CE0101960E94FF080E941F
:102000000908D0CF61E471E0CE0101960E94070972
:10201000CE0101960E94D008CE0101960E94FF08D1
:102020000E9447070E949F0762E773E0CE01019676
:102030000E940709CE0101960E94D008CE010196A8
:102040000E94FF0880910201909103010196843063
:10205000910539F090930301809302010E94500989
:10206000A1CF1092030110920201F8CF61E471E058
:10207000CE0101960E940709CE0101960E94D00868
:10208000CE0101960E94FF080E9447070E949F0709
:1020900061E873E0CE0101960E940709CE01019626
:1020A0000E94D008CE0101960E94FF080E94DB101A
:1020B000A30192010E94331120910201309103018A
:1020C000C12CD12C76016C157D058E059F056CF019
:1020D0002F5F3F4F2430310511F430E020E0EFEF67
:1020E000CE1ADE0AEE0AFE0AEECF309303012093E9
:1020F0000201B4CF61E973E0CE0101960E940709A5
:10210000CE0101960E94D008CE0101960E94FF08E0
:1021100068EC70E080E090E00E94D20243CF8F92A2
:102120009F92AF92BF92CF92DF92EF92FF92CF93A6
:10213000DF93EC01688179818A819B81611571054A
:102140008105910521F464E279ED8BE597E02DE1BD
:1021500033EF41E050E00E94331149015A019B01E5
:10216000AC01A7EAB1E40E9452116B017C01ACEE14
:10217000B4EFA50194010E946011C60ED71EE81E9F
:10218000F91EF7FE06C081E0C81AD108E10880E810
:10219000F80AC882D982EA82FB82C701B6019F771A
:1021A000DF91CF91FF90EF90DF90CF90BF90AF90F5
:1021B0009F908F9008958F929F92AF92BF92CF92EF
:1021C000DF92EF92FF92609104017091050180917E
:1021D000060190910701611571058105910521F4B2
:1021E00064E279ED8BE597E02DE133EF41E050E0DB
:1021F0000E94331149015A019B01AC01A7EAB1E4E5
:102200000E9452116B017C01ACEEB4EFA501940168
:102210000E946011C60ED71EE81EF91EF7FE06C00A
:1022200081E0C81AD108E10880E8F80AC0920401E8
:10223000D0920501E0920601F0920701C701B601B4
:102240009F77FF90EF90DF90CF90BF90AF909F90DF
:102250008F900895609304017093050180930601A7
:10226000909307010895052E97FB1EF400940E9499
:102270004A1157FD07D00E949C1107FC03D04EF471
:102280000C944A1150954095309521953F4F4F4FF2
:102290005F4F089590958095709561957F4F8F4F12
:1022A0009F4F08950E94BE11A59F900DB49F900D61
:1022B000A49F800D911D11240895B7FF0C94521115
:1022C0000E945211821B930B08952F923F924F92BE
:1022D0005F926F927F928F929F92AF92BF92CF92B6
:1022E000DF92EF92FF920F931F93CF93DF93CDB7BF
:1022F000DEB7CA1BDB0B0FB6F894DEBF0FBECDBF37
:1023000009942A88398848885F846E847D848C8407
:102310009B84AA84B984C884DF80EE80FD800C8110
:102320001B81AA81B981CE0FD11D0FB6F894DEBFF3
:102330000FBECDBFED010895A1E21A2EAA1BBB1B53
:10234000FD010DC0AA1FBB1FEE1FFF1FA217B30781
:10235000E407F50720F0A21BB30BE40BF50B661F97
:10236000771F881F991F1A9469F76095709580955B
:1023700090959B01AC01BD01CF010895A29FB001D2
:10238000B39FC001A39F700D811D1124911DB29FA9
:10239000700D811D1124911D0895991B79E004C0D1
:1023A000991F961708F0961B881F7A95C9F7809594
:1023B0000895EE0FFF1F0590F491E02D09940F93FF
:1023C0001F93CF93DF938230910510F482E090E069
:1023D000E091BC04F091BD0430E020E0B0E0A0E06A
:1023E000309799F42115310509F44AC0281B390B9F
:1023F00024303105D8F58A819B816115710589F1F9
:10240000FB0193838283FE0111C0408151810281CF
:10241000138148175907E0F04817590799F41097A6
:1024200061F012960C93129713961C933296CF017B
:10243000DF91CF911F910F9108950093BC041093E9
:10244000BD04F4CF2115310551F04217530738F080
:10245000A901DB019A01BD01DF01F801C1CFEF0144
:10246000F9CF9093BD048093BC04CDCFFE01E20F61
:10247000F31F819391932250310939832883D7CF59
:102480002091BA043091BB04232B41F420910A011E
:1024900030910B013093BB042093BA0420910801C2
:1024A000309109012115310541F42DB73EB7409116
:1024B0000C0150910D01241B350BE091BA04F091F1
:1024C000BB04E217F307A0F42E1B3F0B28173907B4
:1024D00078F0AC014E5F5F4F2417350748F04E0F80
:1024E0005F1F5093BB044093BA04819391939FCF95
:1024F000F0E0E0E09CCFCF93DF930097E9F0FC01A0
:10250000329713821282A091BC04B091BD04ED01F8
:1025100030E020E01097A1F420813181820F931FD9
:102520002091BA043091BB042817390709F061C023
:10253000F093BB04E093BA04DF91CF910895EA01D0
:10254000CE17DF07E8F54A815B819E0141155105F1
:10255000B1F7E901FB83EA8349915991C40FD51F73
:10256000EC17FD0761F4808191810296840F951F1D
:10257000E90199838883828193819B838A83F0E038
:10258000E0E012968D919C9113970097B9F52D91EB
:102590003C911197CD010296820F931F2091BA04AE
:1025A0003091BB042817390739F6309751F510924E
:1025B000BD041092BC04B093BB04A093BA04BCCF7A
:1025C000D383C28340815181840F951FC817D907D7
:1025D00061F44E5F5F4F88819981480F591F518385
:1025E00040838A819B81938382832115310509F081
:1025F000B0CFF093BD04E093BC049ECFFD01DC019D
:10260000C0CF13821282D7CFB0E0A0E0EAE0F3E1BE
:102610000C9467118C01009751F4CB010E94DF11DB
:102620008C01C801CDB7DEB7E0E10C948311FC0149
:10263000E60FF71F9C0122503109E217F30708F457
:102640009DC0D901CD91DC911197C617D70798F09D
:10265000C530D10530F3CE0104978617970708F3EC
:10266000C61BD70B2297C193D1936D937C93CF0157
:102670000E947B12D6CF5B01AC1ABD0A4C018C0EB6
:102680009D1EA091BC04B091BD04512C412CF12C95
:10269000E12C109731F58091BA049091BB04881514
:1026A000990509F05CC04616570608F058C080919D
:1026B000080190910901009741F48DB79EB74091B0
:1026C0000C0150910D01841B950BE817F90708F0D8
:1026D00055C0F093BB04E093BA04F90171836083A1
:1026E000A0CF8D919C91119712966C901297139692
:1026F0007C901397A815B90559F56C0142E0C40EFA
:10270000D11CCA14DB0420F1AC014A195B09DA01BF
:102710001296159780F06282738251834083D901AB
:102720006D937C93E114F10471F0D7011396FC933F
:10273000EE93129776CF22968C0F9D1FF90191830D
:102740008083F301EFCFF093BD04E093BC0469CF25
:102750004816590608F42C017D01D3019ACFCB010C
:102760000E94DF117C01009749F0AE01B8010E9480
:10277000C613C8010E947B12870153CF10E000E00E
:1027800050CF81E090E0F8940C94D613FB01DC016B
:1027900002C001900D9241505040D8F70895FB01BE
:1027A000DC0101900D920020E1F70895F894FFCF2D
:1027B000FFFFFFFF010000000000BE0480000000DA
:1027C0000000D704AA04AE088004A3049004810486
:1027D00000000000AC050603AE08AD0874080D0A41
:1027E0000020202020202B20202B20202B20202BDD
:1027F00000202020202043757474696E672E2E2ED1
:10280000002020507265737320746F20556E6C6FBA
:102810006164205430002020507265737320746FFF
:1028200020556E6C6F616420543100202050726519
:10283000737320746F20556E6C6F61642054320086
:102840002020507265737320746F20556E6C6F6119
:102850006420543300202020507265737320746FFD
:10286000204C6F616420543000202020507265732A
:102870007320746F204C6F6164205431002020203D
:10288000507265737320746F204C6F6164205432F2
:1028900000202020507265737320746F204C6F618C
:1028A00064205433002020202020202057656C63B2
:1028B0006F6D6521002020202033444368616D65E1
:1028C0006C656F6E204D6B3400202020202020206E
:1028D000202050726F00202020202020205265618F
:1028E0006479210020202020537769746368207464
:1028F0006F205430002020202053776974636820B3
:10290000746F20543100202020205377697463684D
:1029100020746F2054320020202020537769746384
:102920006820746F2054330020202020486F6D658C
:102930002F4C6F61642054300020202020556E6C95
:102940006F61642F486F6D650020202020202020BB
:1029500020486F6D650020202020202020204E651B
:102960007874002020202020202052616E646F6D3A
:102970000020202020204E6F20436F6D6D616E641B
:1029800000202020202054302053656C656374653E
:10299000640020202020202049646C65202D2054D4
:1029A0003000202020202054312053656C65637452
:1029B00065640020202020202049646C65202D20A3
:1029C000543100202020202054322053656C656350
:1029D0007465640020202020202049646C65202D2F
:1029E00020543200202020202054332053656C6571
:1029F000637465640020202020202049646C6520D9
:102A00002D20543300202020202020486F6D696E37
:102A1000672E2E2E00202020202020202049646CAC
:102A2000650020202020204E65787420546F6F6C44
:102A3000002020202052616E646F6D20546F6F6CF7
:0E2A40000020202020202020436C65617200C1
:00000001FF
