:100000000C9462000C948A000C948A000C948A0070
:100010000C948A000C948A000C948A000C948A0038
:100020000C948A000C948A000C948A000C948A0028
:100030000C948A000C948A000C948A000C948A0018
:100040000C94C3020C948A000C948A000C948A00CD
:100050000C948A000C948A000C948A000C948A00F8
:100060000C948A000C948A000000000024002700F1
:100070002A0000000000250028002B0000000000DE
:1000800023002600290004040404040404040202DA
:100090000202020203030303030301020408102007
:1000A0004080010204081020010204081020000012
:1000B0000008000201000003040700000000000027
:1000C0000000420511241FBECFEFD8E0DEBFCDBF38
:1000D00011E0A0E0B1E0E0EAFBE002C005900D9283
:1000E000A830B107D9F721E0A8E0B1E001C01D9226
:1000F000AF31B207E1F710E0C2E6D0E004C02197CB
:10010000FE010E94A605C136D107C9F70E940D0362
:100110000C94CE050C940000833081F028F48130DB
:1001200099F08230A9F008958730A9F08830C9F09D
:100130008430B1F4809180008F7D03C08091800075
:100140008F7780938000089584B58F7784BD08955C
:1001500084B58F7DFBCF8091B0008F778093B00006
:1001600008958091B0008F7DF9CFCF93DF93EFEBAF
:10017000F0E08491EBEAF0E0D491E7E9F0E0C4919B
:10018000CC23A1F081110E948C00EC2FF0E0EE0F47
:10019000FF1FE458FF4FA591B491EC91ED2381E04E
:1001A00090E009F480E0DF91CF91089580E090E045
:1001B000FACF1F93CF93DF93282F30E0F901E25558
:1001C000FF4F8491F901E656FF4FD491F901EA57A8
:1001D000FF4FC491CC23A9F0162F81110E948C00EF
:1001E000EC2FF0E0EE0FFF1FEE58FF4FA591B491FA
:1001F0008FB7F894EC91111108C0D095DE23DC93F1
:100200008FBFDF91CF911F910895DE2BF8CFCF9351
:10021000DF9390E0FC01E656FF4F24918A579F4FF1
:10022000FC0184918823D1F090E0880F991FFC0194
:10023000E859FF4FA591B491FC01EE58FF4FC591CD
:10024000D491623071F49FB7F8943C91822F8095DD
:1002500083238C93E8812E2B28839FBFDF91CF913E
:1002600008958FB7F894EC912E2B2C938FBFF6CF77
:100270003FB7F8948091090190910A01A0910B0178
:10028000B0910C0126B5A89B05C02F3F19F001962F
:10029000A11DB11D3FBFBA2FA92F982F8827BC01E0
:1002A000CD01620F711D811D911D43E0660F771F07
:1002B000881F991F4A95D1F708958F929F92AF9208
:1002C000BF92CF92DF92EF92FF926B017C010E946E
:1002D00038014B015C01C114D104E104F104B9F00F
:1002E0000E943801681979098A099B09683E7340A0
:1002F0008105910580F321E0C21AD108E108F108D7
:1003000088EE880E83E0981EA11CB11CE4CFFF90FC
:10031000EF90DF90CF90BF90AF909F908F90089517
:100320000F931F93CF93DF93C82F8B0160E08EE074
:100330000E94D9006C2F80E10E94D900D0E0C0E07B
:1003400061E08FE00E94D90060E070E0CB010E9484
:100350005D0160E08FE00E94D90060E070E0CB01B9
:100360000E945D0121960C171D0751F7DF91CF9177
:100370001F910F91089560E270E080E00E9490016B
:1003800060E270E081E00C94900160E87CE080E045
:100390000E94900160EA70E081E00E94900110925A
:1003A0000701109206018EEF9FEF90931601809344
:1003B000150108958F929F92AF92BF92CF92DF92D4
:1003C000EF92FF92F82E4A015B0160E080E00E940C
:1003D000D9006F2D82E00E94D90080910401909194
:1003E000050181309105B1F4C12CD12C7601C814DE
:1003F000D904EA04FB0444F561E081E00E94D900DD
:1004000060E081E00E94D9008FEFC81AD80AE80A9C
:10041000F80AEDCF0297C1F40E94B500892B39F09C
:1004200065E070E080E090E00E945D01F5CF0E9401
:10043000B500892B49F461E081E00E94D90060E0B9
:1004400081E00E94D900F3CF61E080E0FF90EF905F
:10045000DF90CF90BF90AF909F908F900C94D90079
:10046000EF92FF921F93CF93DF93EB01C81BD90B41
:1004700011E0D7FF04C0EC01C61BD70B10E01C161F
:100480001D0674F4F12CE12C117060E273E0812FF1
:100490000E9490018FEFE81AF80ACE15DF05A9F740
:1004A000DF91CF911F91FF90EF9008950F931F93CD
:1004B000CF93DF93C0911501D091160100910401F3
:1004C00010910501D7FD1CC010161106ECF4CE01E9
:1004D0000196C330D10511F482E090E0BE010E9484
:1004E00030024091110150911201609113017091FD
:1004F000140181E022970CF080E00E94DA0104C030
:100500001092160110921501C0910601D0910701B9
:10051000BE0180911501909116010E943002C230F7
:10052000D10594F4101611062CF540911701509145
:1005300018016091190170911A0180E00E94DA019E
:10054000BE016F5F7F4F13C0101611069CF44091DF
:100550001701509118016091190170911A0181E001
:100560000E94DA0162E070E0C330D10549F7CE01A4
:100570000E943002D0931601C0931501DF91CF91F4
:100580001F910F9108951F920F920FB60F92112491
:100590002F933F938F939F93AF93BF9380910D01C0
:1005A00090910E01A0910F01B091100130910801BE
:1005B00026E0230F2D3758F50296A11DB11D20937B
:1005C000080180930D0190930E01A0930F01B09349
:1005D00010018091090190910A01A0910B01B09145
:1005E0000C010196A11DB11D8093090190930A0190
:1005F000A0930B01B0930C01BF91AF919F918F918C
:100600003F912F910F900FBE0F901F90189529E8E2
:10061000230F0396A11DB11DD2CFCF93DF9300D03E
:1006200000D0CDB7DEB7789484B5826084BD84B540
:10063000816084BD85B5826085BD85B5816085BDDD
:1006400080916E00816080936E0010928100809195
:10065000810082608093810080918100816080931D
:100660008100809180008160809380008091B10042
:1006700084608093B1008091B00081608093B0006D
:1006800080917A00846080937A0080917A00826001
:1006900080937A0080917A008E7F80937A00809197
:1006A0007A00806880937A001092C10090E080E028
:1006B0000E94710590E0909305018093040161E030
:1006C00080E00E94070161E081E00E94070161E093
:1006D00082E00E94070161E08EE00E94070161E074
:1006E0008FE00E94070161E080E10E94070162E063
:1006F00081E10E94070161E082E10E94070162E05E
:1007000083E10E94070161E08EE00E94D90061E070
:100710008BE00E94070161E08BE00E94D90082E03B
:10072000882E912CA12CB12C90E0292E90E0392E0E
:1007300002E010E00E94B500892B09F053C0C12CE3
:10074000D12C7601412C512C32010E94B500892B0D
:1007500021F580911B0190911C01A0911D01B09188
:100760001E01481659066A067B0660F42FEF421AEE
:10077000520A620A720A61E070E080E090E00E9432
:100780005D01E3CF0E94BB013FEFC31AD30AE30A26
:10079000F30A412C512C3201EECF41E0C41AD108AA
:1007A000E108F1085FE0C516D104E104F104D0F4DA
:1007B000F601E352FC4F0C94A605EC03F903000488
:1007C0000504080431045504F203F2035B04F20348
:1007D000F203F203F203970410920701109206014C
:1007E0000E9456022114310409F4A4CF0E94000093
:1007F000A1CF81E090E09093070180930601F0CFB4
:100800001093070100930601EBCF83E090E0F3CF54
:100810000E94C50170E060E090E080E00E9430023C
:100820008091040190910501181619068CF44091ED
:100830001701509118016091190170911A0180E01F
:100840000E94DA0161E070E090E080E00E943002F6
:1008500010920701109206011092160110921501D4
:10086000C1CFE0901501F0901601809104019091A4
:10087000050118161906CCF493E0E916F104C1F04D
:10088000C7010196B7010E943002409111015091B9
:100890001201609113017091140180E0A2E0EA1648
:1008A000F1040CF481E00E94DA010E94C5019ACFA4
:1008B00082E090E0E7CF80910401909105010196DC
:1008C000833091057CF5909305018093040160913C
:1008D000040190E080E00E94790564E670E080E029
:1008E00090E00E945D010E94BB01E0900401F09045
:1008F00005011E141F040CF075CF69E170E080E063
:1009000090E00E945D010E94BB01EA94EF2809F487
:1009100069CF69E170E080E090E00E945D010E9493
:10092000BB0160CF1092050110920401D0CF64E6A4
:1009300070E080E090E00E945D010E94BB0162E3F4
:1009400070E080E090E00E945D010E94BB0162E3E4
:1009500070E080E090E00E945D010E94BB01109277
:100960000701109206010E94B500892B39F065E05D
:1009700070E080E090E00E945D01F5CF8FB7F894C1
:10098000C0900D01D0900E01E0900F01F090100189
:100990008FBF0E94B500892B39F465E070E080E0DC
:1009A00090E00E945D01F5CF8FB7F89440900D0163
:1009B00050900E0160900F01709010018FBF4C1885
:1009C0005D086E087F080E94BB010E94B500892B5C
:1009D00039F065E070E080E090E00E945D01F5CFC5
:1009E0008FB7F89420910D0130910E0140910F01C5
:1009F0005091100129833A834B835C838FBF0E94FF
:100A0000B500892B39F465E070E080E090E00E9449
:100A10005D01F5CF8FB7F894C0900D01D0900E0115
:100A2000E0900F01F09010018FBF89819A81AB8116
:100A3000BC81C81AD90AEA0AFB0A0E94BB0162E318
:100A400070E080E090E00E945D010E94BB01C70160
:100A5000B6016419750986099709609300017093BE
:100A600001018093020190930301A50194010E946A
:100A7000870520931B0130931C0140931D01509367
:100A80001E01B0CE609100017091010180910201C0
:100A90009091030122E030E040E050E00E948705A1
:100AA00020931B0130931C0140931D0150931E01A4
:100AB00080E09DE7A0E0B0E08093110190931201E7
:100AC000A0931301B093140180E899E8A0E0B0E08E
:100AD0008093170190931801A0931901B0931A0104
:100AE0000895F999FECF92BD81BDF89A992780B5F6
:100AF0000895262FF999FECF1FBA92BD81BD20BD62
:100B00000FB6F894FA9AF99A0FBE01960895052E39
:100B100097FB1EF400940E949E0557FD07D00E948B
:100B2000AC0507FC03D04EF40C949E0550954095FF
:100B3000309521953F4F4F4F5F4F08959095809589
:100B4000709561957F4F8F4F9F4F0895EE0FFF1F58
:100B50000590F491E02D0994A1E21A2EAA1BBB1B6B
:100B6000FD010DC0AA1FBB1FEE1FFF1FA217B30779
:100B7000E407F50720F0A21BB30BE40BF50B661F8F
:100B8000771F881F991F1A9469F760957095809553
:100B900090959B01AC01BD01CF010895F894FFCF62
:080BA000640000000100FFFFEA
:00000001FF
