:100000000C9462000C948A000C948A000C948A0070
:100010000C948A000C948A000C948A000C948A0038
:100020000C948A000C948A000C948A000C948A0028
:100030000C948A000C948A000C948A000C948A0018
:100040000C9493030C948A000C9461030C943B036E
:100050000C948A000C948A000C948A000C948A00F8
:100060000C948A000C948A000000000024002700F1
:100070002A0000000000250028002B0000000000DE
:1000800023002600290004040404040404040202DA
:100090000202020203030303030301020408102007
:1000A0004080010204081020010204081020000012
:1000B0000008000201000003040700000000000027
:1000C00000002D0611241FBECFEFD8E0DEBFCDBF4C
:1000D00011E0A0E0B1E0E0EFFCE002C005900D927D
:1000E000A632B107D9F721E0A6E2B1E001C01D9226
:1000F000A63DB207E1F710E0C2E6D0E004C02197C8
:10010000FE010E947006C136D107C9F70E94DD03C7
:100110000C9476060C940000FC01538D448D252F21
:1001200030E0842F90E0821B930B541710F0CF9691
:10013000089501970895FC01918D828D981761F0C3
:10014000A28DAE0FBF2FB11D5D968C91928D9F5FDA
:100150009F73928F90E008958FEF9FEF0895FC01B9
:10016000918D828D981731F0828DE80FF11D858D6C
:1001700090E008958FEF9FEF0895FC01918D228DFF
:10018000892F90E0805C9F4F821B91098F73992784
:100190000895FC01A48DA80FB92FB11DA35ABF4F1C
:1001A0002C91848D90E001968F739927848FA68976
:1001B000B7892C93A089B1898C91837080648C93CA
:1001C000938D848D981306C00288F389E02D808179
:1001D0008F7D80830895EF92FF920F931F93CF93AB
:1001E000DF93EC0181E0888F9B8D8C8D98131AC072
:1001F000E889F989808185FF15C09FB7F894EE8959
:10020000FF896083E889F9898081837080648083B5
:100210009FBF81E090E0DF91CF911F910F91FF9000
:10022000EF900895F62E0B8D10E00F5F1F4F0F73A8
:100230001127E02E8C8D8E110CC00FB607FCFACF63
:10024000E889F989808185FFF5CFCE010E94C90038
:10025000F1CFEB8DEC0FFD2FF11DE35AFF4FF08234
:100260009FB7F8940B8FEA89FB8980818062CFCF9A
:10027000CF93DF93EC01888D8823B9F0AA89BB89DD
:10028000E889F9898C9185FD03C0808186FD0DC0C8
:100290000FB607FCF7CF8C9185FFF2CF808185FFE9
:1002A000EDCFCE010E94C900E9CFDF91CF91089533
:1002B00089E391E00E94BD0021E0892B09F420E050
:1002C000822F089580E090E0892B29F00E94580148
:1002D00081110C9400000895AF92BF92CF92DF92EB
:1002E000EF92FF920F931F93CF93DF936C017B01EB
:1002F0008B01040F151FEB015E01AE18BF08C0177C
:10030000D10759F06991D601ED91FC910190F081EE
:10031000E02DC6010995892B79F7C501DF91CF91B1
:100320001F910F91FF90EF90DF90CF90BF90AF9013
:100330000895833081F028F4813099F08230A9F05B
:1003400008958730A9F08830C9F08430B1F48091E5
:1003500080008F7D03C0809180008F778093800024
:10036000089584B58F7784BD089584B58F7DFBCFC4
:100370008091B0008F778093B00008958091B00095
:100380008F7DF9CFCF93DF93EFEBF0E08491EBEA31
:10039000F0E0D491E7E9F0E0C491CC23A1F0811121
:1003A0000E949901EC2FF0E0EE0FFF1FE458FF4F81
:1003B000A591B491EC91ED2381E090E009F480E007
:1003C000DF91CF91089580E090E0FACF1F93CF9313
:1003D000DF93282F30E0F901E255FF4F8491F901B6
:1003E000E656FF4FD491F901EA57FF4FC491CC2351
:1003F000A9F0162F81110E949901EC2FF0E0EE0F69
:10040000FF1FEE58FF4FA591B4918FB7F894EC9170
:10041000111108C0D095DE23DC938FBFDF91CF91FF
:100420001F910895DE2BF8CFCF93DF9390E0FC016E
:10043000E656FF4F24918A579F4FFC0184918823F1
:10044000D1F090E0880F991FFC01E859FF4FA5916A
:10045000B491FC01EE58FF4FC591D49161110EC0CB
:100460009FB7F8948C91E22FE0958E238C9328818E
:10047000E223E8839FBFDF91CF9108958FB7F8946F
:10048000EC91E22BEC938FBFF6CF3FB7F8948091BD
:10049000270190912801A0912901B0912A0126B548
:1004A000A89B05C02F3F19F00196A11DB11D3FBFAC
:1004B000BA2FA92F982F8827BC01CD01620F711D7B
:1004C000811D911D43E0660F771F881F991F4A9574
:1004D000D1F708958F929F92AF92BF92CF92DF9201
:1004E000EF92FF926B017C010E9445024B015C017F
:1004F000C114D104E104F104B9F00E944502681965
:1005000079098A099B09683E73408105910580F34A
:1005100021E0C21AD108E108F10888EE880E83E0D4
:10052000981EA11CB11CE4CFFF90EF90DF90CF90FC
:10053000BF90AF909F908F900895CF93DF93C82F77
:1005400060E080E00E94E6016C2F82E00E94E601FC
:10055000C0E1D0E061E081E00E94E60160E070E08F
:10056000CB010E946A0260E081E00E94E6012197CF
:1005700089F761E080E0DF91CF910C94E601CF93A1
:10058000DF93FC0101900020E9F73197AF01481B90
:10059000590BBC0189E391E00E946C01EC0142E03F
:1005A00050E064E171E089E391E00E946C018C0FFE
:1005B0009D1FDF91CF9108950F931F93CF93DF93EA
:1005C000C82F8B0187E191E00E94BF0260E08EE0BE
:1005D0000E94E6016C2F80E10E94E601D0E0C0E0BD
:1005E000C017D107A4F461E08FE00E94E60160E04B
:1005F00070E0CB010E946A0260E08FE00E94E60199
:1006000060E070E0CB010E946A022196E9CFDF91A1
:10061000CF911F910F9108958FE191E00E94BF0249
:1006200060E87CE080E00E94DC0260910001709153
:10063000010184E0660F771F8A95E1F781E00C9451
:10064000DC0260E570E081E00E94DC0260E570E0C1
:1006500080E00E94DC0260E570E081E00E94DC0244
:1006600060E570E080E00E94DC0264E670E080E01B
:1006700090E00C946A021F920F920FB60F92112411
:100680002F933F934F935F936F937F938F939F939A
:10069000AF93BF93EF93FF9389E391E00E94C9006A
:1006A000FF91EF91BF91AF919F918F917F916F914A
:1006B0005F914F913F912F910F900FBE0F901F9020
:1006C00018951F920F920FB60F9211242F938F93AC
:1006D0009F93EF93FF93E0914901F0914A0180814C
:1006E000E0914F01F091500182FD1BC090818091FB
:1006F00052018F5F8F7320915301821741F0E09177
:100700005201F0E0E75CFE4F958F80935201FF911C
:10071000EF919F918F912F910F900FBE0F901F908F
:1007200018958081F4CF1F920F920FB60F9211246B
:100730002F933F938F939F93AF93BF9380913001FB
:1007400090913101A0913201B09133013091260195
:1007500026E0230F2D3758F50296A11DB11D2093D9
:1007600026018093300190933101A0933201B09320
:1007700033018091270190912801A0912901B09126
:100780002A010196A11DB11D809327019093280194
:10079000A0932901B0932A01BF91AF919F918F91AE
:1007A0003F912F910F900FBE0F901F90189529E841
:1007B000230F0396A11DB11DD2CF789484B582601A
:1007C00084BD84B5816084BD85B5826085BD85B5F5
:1007D000816085BD80916E00816080936E00109273
:1007E00081008091810082608093810080918100EE
:1007F000816080938100809180008160809380007F
:100800008091B10084608093B1008091B0008160DC
:100810008093B00080917A00846080937A00809108
:100820007A00826080937A0080917A008E7F809334
:100830007A0080917A00806880937A001092C100DB
:10084000109238011092370190E080E00E945A0621
:10085000C82F81E090E00E945A062C2F30E0322F02
:100860002227820F932F911D909301018093000105
:10087000C39734F08AE090E09093010180930001E7
:1008800061E080E00E94140261E081E00E941402B5
:1008900061E082E00E94140261E08EE00E94140296
:1008A00061E08FE00E94140261E080E10E94140286
:1008B00060E081E10E94140260E082E10E94140283
:1008C00060E083E10E94140261E08EE00E94E60194
:1008D00061E08BE00E94140261E08BE00E94E6017F
:1008E000109235011092340126E0222E312C35E091
:1008F000432E512C48E0642E712CC7E0D0E004E078
:1009000010E082E0C82ED12C90E0E92E90E0F92E84
:1009100010923801109237010E94C201892B09F40C
:10092000E0C08FB7F8948090300190903101A09092
:100930003201B09033018FBF0E94C2012091360175
:10094000892B39F02223C1F360E08BE00E94E6019D
:10095000F3CF222321F061E08BE00E94E6012FB764
:10096000F8948091300190913101A0913201B091C1
:1009700033012FBF88199909AA09BB09833391054F
:10098000A105B105BCF085369105A105B1053CF482
:1009900081E090E090933801809337010BC081395A
:1009A00021E09207A105B1050CF045C0D0923801B5
:1009B000C092370180913601882341F1809137013F
:1009C000909138018830910559F01816190644F4B1
:1009D00090933501809334011092380110923701C1
:1009E0008091370190913801089781F4809134010A
:1009F000909135010397029708F02CC110923801AD
:100A0000109237011092350110923401E0913701B4
:100A1000F09138013197E830F10508F062C0ED5EE1
:100A2000FA4F0C9470065F059405A805C605E40509
:100A30000F0626062A06853F21E09207A105B1058B
:100A40001CF483E090E0A6CF813223E09207A10559
:100A5000B1052CF41093380100933701ABCF893ED8
:100A600023E09207A105B1052CF4D0933801C0937F
:100A70003701A0CF813D27E09207A105B1052CF4F5
:100A8000709238016092370195CF893B2BE0920735
:100A9000A105B1052CF450923801409237018ACF5C
:100AA0008D3A9D40A105B1052CF430923801209279
:100AB000370180CF10923801109237017BCF80919F
:100AC0002F018823D1F080912D0190912E01019664
:100AD00090932E0180932D0160E170E081E00E94EF
:100AE000DC02E114F10409F413CF0E9458018823B9
:100AF00009F407CF0E94000004CF80912B01909150
:100B00002C01019690932C0180932B0160E273E0FD
:100B1000049721F760E679E080E00E94DC02109201
:100B20002C0110922B01DDCF80912F01882369F0D9
:100B300080912D0190912E01019790932E01809329
:100B40002D0160E170E080E0CACF0E940C03E7CF86
:100B500062E370E080E090E00E946A020E94C201BD
:100B6000892B29F465E070E080E090E0F5CF62E346
:100B700070E080E090E00E946A020E94C201892B2E
:100B800009F4AFCF81E00E949D02F7CF62E370E0ED
:100B900080E090E00E946A020E94C201892B29F441
:100BA00065E070E080E090E0F5CF62E370E080E027
:100BB00090E00E946A020E94C201892B09F491CF41
:100BC00080E00E949D02F7CF80912F01882301F1E0
:100BD000B0902D0160912E01B0920001609301014F
:100BE00090E080E00E9462066B2D81E090E00E9420
:100BF00062060E9421030E94210380912F0191E04F
:100C0000892780932F0110922E0110922D0169CF18
:100C100010920101109200010E940C03EECF60E0DF
:100C200090E080E00E9462066AE081E090E00E942D
:100C300062068AE090E090930101809300010E9497
:100C400021030E9421030E9421034BCF91E0909346
:100C50003601F9CF10923601F6CFE9E3F1E01382C5
:100C6000128288EE93E0A0E0B0E084839583A683AF
:100C7000B78386E091E09183808385EC90E095874F
:100C8000848784EC90E09787868780EC90E0918B56
:100C9000808B81EC90E0938B828B82EC90E0958B43
:100CA000848B86EC90E0978B868B118E128E138E40
:100CB000148E0895F999FECF92BD81BDF89A9927B7
:100CC00080B50895262FF999FECF1FBA92BD81BD38
:100CD00020BD0FB6F894FA9AF99A0FBE01960895BE
:100CE000EE0FFF1F0590F491E02D0994F894FFCFCB
:100CF000080000000000EB006C018C003801BD0012
:100D00009B00AF000D0A00526F742053656C0048C1
:060D10006F6D696E6700C3
:00000001FF
